:100000000C9476000C949E000C949E000C949E0020
:100010000C949E000C949E000C949E000C94CA03B9
:100020000C949E000C949E000C949E000C949E00D8
:100030000C949E000C949E000C949E000C949E00C8
:100040000C9480030C949E000C94FB010C94D5013D
:100050000C949E000C949E000C949E000C949E00A8
:100060000C949E000C949E00440C23092309230940
:10007000230923092309230923095E0C5E0C5E0C66
:100080002309830C2309880C800CAC0C2309B10CC8
:100090000000000800020100000304070000000047
:1000A0000000000000000000240027002A000000DB
:1000B0000000230026002900000000002500280081
:1000C0002B000404040404040404020202020202D9
:1000D000030303030303010204081020408001020C
:1000E00004081020010204081020BF0F11241FBEB5
:1000F000CFEFD8E0DEBFCDBF16E0A0E0B1E0E0EF8B
:10010000F5E202C005900D92A836B107D9F728E0B4
:10011000A8E6B6E001C01D92A530B207E1F710E0F5
:10012000C6E7D0E004C02197FE010E949A12C537AD
:10013000D107C9F70E94E3050C94F6120C94000055
:10014000CF92DF92EF92FF920F931F93CF93DF93A3
:100150006C017A018B01C0E0D0E0CE15DF0589F09B
:10016000D8016D918D01D601ED91FC910190F08146
:10017000E02DC6010995892B11F47E0102C021965C
:10018000ECCFC701DF91CF911F910F91FF90EF90BE
:10019000DF90CF900895089580E090E00895FC01ED
:1001A000538D448D252F30E0842F90E0821B930BDC
:1001B000541710F0CF96089501970895FC01918D82
:1001C000828D981761F0828DDF01A80FB11D5D96B9
:1001D0008C91928D9F5F9F73928F90E008958FEF27
:1001E0009FEF0895FC01918D828D981731F0828DDB
:1001F000E80FF11D858D90E008958FEF9FEF089532
:10020000FC01918D228D892F90E0805C9F4F821B95
:1002100091098F739927089587E896E00E9400015D
:1002200021E0892B09F420E0822F0895FC01848DC0
:10023000DF01A80FB11DA35ABF4F2C91848D90E010
:1002400001968F739927848FA689B7892C93A089EB
:10025000B1898C9180648C93938D848D981306C0A2
:100260000288F389E02D80818F7D80830895EF924D
:10027000FF920F931F93CF93DF93EC0181E0888F60
:100280009B8D8C8D981305C0E889F989808185FD47
:1002900024C0F62E0B8D10E00F5F1F4F0F73112738
:1002A000E02E8C8DE8120CC00FB607FCFACFE8895F
:1002B000F989808185FFF5CFCE010E941601F1CF2B
:1002C0008B8DFE01E80FF11DE35AFF4FF0820B8F7B
:1002D000EA89FB898081806207C0EE89FF8960839B
:1002E000E889F98980818064808381E090E0DF91F2
:1002F000CF911F910F91FF90EF900895CF93DF93CF
:10030000EC01888D8823C9F0EA89FB89808185FD0D
:1003100005C0A889B9898C9186FD0FC00FB607FC6E
:10032000F5CF808185FFF2CFA889B9898C9185FFAF
:10033000EDCFCE010E941601E7CFDF91CF91089556
:1003400080E090E0892B29F00E940C0181110C942F
:1003500000000895833081F028F4813099F08230D4
:10036000A1F008958730A9F08830B9F08430D1F435
:10037000809180008F7D03C0809180008F77809373
:100380008000089584B58F7702C084B58F7D84BDC9
:1003900008958091B0008F7703C08091B0008F7D69
:1003A0008093B00008950E94F1121F920F920FB631
:1003B0000F9211242F933F934F935F936F937F93EB
:1003C0008F939F93AF93BF93EF93FF9387E896E04C
:1003D0000E941601FF91EF91BF91AF919F918F9174
:1003E0007F916F915F914F913F912F910F900FBE31
:1003F0000F901F9018951F920F920FB60F92112415
:100400002F938F939F93EF93FF93E0919706F09133
:1004100098068081E0919D06F0919E0682FD12C0B3
:1004200090818091A0068F5F8F732091A106821723
:1004300051F0E091A006F0E0E957F94F958F8093D5
:10044000A00601C08081FF91EF919F918F912F9124
:100450000F900FBE0F901F901895CF93DF93282F0A
:1004600030E0F901E057FF4F8491F901EA52FF4F64
:10047000D491F901EE53FF4FC491CC2391F0811137
:100480000E94AA01EC2FF0E0EE0FFF1FE255FF4F94
:10049000A591B491EC91ED2381E090E021F480E00E
:1004A00002C080E090E0DF91CF9108951F93CF9339
:1004B000DF93282F30E0F901E057FF4F8491F901D5
:1004C000EA52FF4FD491F901EE53FF4FC491CC2370
:1004D000C9F0162F81110E94AA01EC2FF0E0EE0F57
:1004E000FF1FE854FF4FA591B4918FB7F8941111F5
:1004F00005C09C91ED2FE095E92302C0EC91ED2B16
:10050000EC938FBFDF91CF911F910895CF93DF932D
:1005100090E0FC01EA52FF4F2491FC01EE53FF4FA3
:100520008491882361F190E0880F991FFC01EC55BC
:10053000FF4FC591D491FC01E854FF4FA591B491B0
:10054000611109C09FB7F894888120958223888320
:10055000EC912E230BC0623061F49FB7F894388180
:10056000822F809583238883EC912E2B2C939FBF21
:1005700006C08FB7F894E8812E2B28838FBFDF91B8
:10058000CF9108951F93CF93DF93182FEB0161E074
:100590000E948602209711F460E004C0CF3FD1058D
:1005A00039F461E0812FDF91CF911F910C945602B5
:1005B000E12FF0E0E057FF4FE491E330F9F048F429
:1005C000E130B9F0E230A1F584B5806284BDC8BDE8
:1005D00034C0E730E9F0E83019F1E43049F58091B2
:1005E0008000806280938000D0938B00C0938A004B
:1005F00024C084B5806884BDC7BD1FC080918000C1
:10060000806880938000D0938900C093880015C0D3
:100610008091B00080688093B000C093B3000DC09B
:100620008091B00080628093B000C093B40005C098
:10063000C038D1050CF0B5CFAFCFDF91CF911F916E
:1006400008953FB7F8948091710690917206A09139
:100650007306B091740626B5A89B05C02F3F19F00C
:100660000196A11DB11D3FBFBA2FA92F982F882732
:10067000820F911DA11DB11DBC01CD0142E0660F8D
:10068000771F881F991F4A95D1F708958F929F92DF
:10069000AF92BF92CF92DF92EF92FF926B017C01FB
:1006A0000E9421034B015C01C114D104E104F10457
:1006B000F1F00E942103DC01CB0188199909AA09F4
:1006C000BB09883E9340A105B10570F321E0C21A31
:1006D000D108E108F10888EE880E83E0981EA11C7D
:1006E000B11CC114D104E104F10419F7DDCFFF906E
:1006F000EF90DF90CF90BF90AF909F908F90089534
:100700001F920F920FB60F9211242F933F938F9346
:100710009F93AF93BF9380916D0690916E06A091C9
:100720006F06B091700630916C0623E0230F2D37D1
:1007300020F40196A11DB11D05C026E8230F0296E5
:10074000A11DB11D20936C0680936D0690936E06DB
:10075000A0936F06B0937006809171069091720617
:10076000A0917306B09174060196A11DB11D8093EE
:10077000710690937206A0937306B0937406BF91AE
:10078000AF919F918F913F912F910F900FBE0F903E
:100790001F9018951F920F920FB60F9211242F934E
:1007A0003F934F935F936F937F938F939F93AF93F9
:1007B000BF93EF93FF93809125070E942D02209114
:1007C000290730912A072F5F3F4F30932A07209344
:1007D000290790912807953618F096E09093240702
:1007E000909124079430C9F128F4923069F0933045
:1007F000D1F05EC0953009F451C0963009F058C070
:1008000091E09093F50751C0811152C020912907C2
:1008100030912A072436310508F442C01092F507BA
:10082000109228071CC0813009F042C0E0912807CF
:1008300091E09E0F90932807F0E0209129073091D6
:100840002A07EE0FFF1FEC5DF84F308727831092C9
:100850002A071092290794E029C0811117C0E0915E
:10086000280791E09E0F90932807F0E02091290738
:1008700030912A07EE0FFF1FEC5DF84F308727837A
:1008800010922A071092290793E010C0209129079F
:1008900030912A072536310558F007C0811108C06C
:1008A00010922A071092290703C095E0909324071D
:1008B000909127079923B9F081110AC080912607EA
:1008C000882321F08091260761E009C02D9A0BC092
:1008D00080912607882331F08091260760E00E94EE
:1008E000560201C02D98FF91EF91BF91AF919F915A
:1008F0008F917F916F915F914F913F912F910F90C9
:100900000FBE0F901F901895CF92DF92EF92FF923B
:10091000CF93DF93EC01072E000C880B990B0E94FC
:100920004B116B017C0120E030E040E45FE30E946A
:10093000FB1120E030E048E452E40E94A1100E9444
:100940001311C617D707D4F020E030E040EA5FE388
:10095000C701B6010E94FB1120E030E048E452E4F8
:100960000E94A11020E030E040E85FE30E943010D8
:100970000E94131121E06C177D070CF420E0822FF8
:1009800090E0DF91CF91FF90EF90DF90CF900895AE
:1009900060E086E00E94560260E085E00E94560218
:1009A00060E08AE00E94560260E089E00E94560200
:1009B0008091850690918606019741F460E08BE076
:1009C0000E94560260E08CE00C9456020895CF938A
:1009D000DF93EC01BC0186E00E94C202BE0185E00B
:1009E0000E94C20260E08AE00E94560260E089E054
:1009F0000E9456028091850690918606019751F4D7
:100A000060E08BE00E94560260E08CE0DF91CF91C5
:100A10000C945602DF91CF91089560E086E00E9429
:100A2000560260E085E00E9456026CE970E08AE0C0
:100A30000E94C20266E970E089E00E94C2028091D1
:100A4000850690918606019741F461E08BE00E9453
:100A5000560261E08CE00C945602089560E570E067
:100A600086E00E94C20260E085E00E94560260E0DB
:100A70008AE00E94560260E570E089E00E94C202AE
:100A80008091850690918606019741F461E08BE0A4
:100A90000E94560260E08CE00C9456020895009784
:100AA00069F0FC0101900020E9F73197AF01481B84
:100AB000590BBC0187E896E00C94A00080E090E020
:100AC0000895CF93DF930E944F05EC0184E696E0F2
:100AD0000E944F058C0F9D1FDF91CF9108958F923B
:100AE0009F92AF92BF92CF92DF92EF92FF920F93BD
:100AF0001F93CF93DF93FC01C081D18120918106A8
:100B000030918206C217D3070CF04BC09E01220F12
:100B1000331FE0917F06F0918006E20FF31F808083
:100B20009180C170DD27F1E0CF27209719F404E60A
:100B300010E002C00CE91FEF7A015B016C01040FA9
:100B4000151FB801C4010E948404892B99F40E0D6D
:100B50001F1DB801C4010E948404892B71F4B801DF
:100B60006E0D7F1DC4010E948404892BE9F023E0EF
:100B700030E005C021E030E002C022E030E0F501C5
:100B8000808191810196821793073CF0F5011182D3
:100B90001082F60180819181019691838083CE013C
:100BA00005C081E090E002C08FEF9FEFDF91CF9111
:100BB0001F910F91FF90EF90DF90CF90BF90AF907B
:100BC0009F908F900895CF93DF93CDB7DEB7A9970D
:100BD0000FB6F894DEBF0FBECDBF789484B58260A7
:100BE00084BD84B5816084BD85B5826085BD85B5D1
:100BF000816085BD80916E00816080936E0010924F
:100C000081008091810082608093810080918100C9
:100C1000816080938100809180008160809380005A
:100C20008091B10084608093B1008091B0008160B8
:100C30008093B00080917A00846080937A008091E4
:100C40007A00826080937A0080917A00816080933C
:100C50007A0080917A00806880937A001092C100B7
:100C6000E0919706F091980682E08083E0919306E8
:100C7000F09194061082E0919506F09196069FEC13
:100C8000908310929F06E0919B06F0919C0696E05F
:100C90009083E0919906F0919A06908190619083FB
:100CA000E0919906F0919A06908198609083E09186
:100CB0009906F0919A06908190689083E091990648
:100CC000F0919A0690819F7D9083F8948093B00074
:100CD0008093B10094E69093B3001092B200809399
:100CE000700078948093240710922807809125073C
:100CF00060E00E94860261E08BE00E94860261E073
:100D00008CE00E94860261E086E00E94860261E03B
:100D10008AE00E94860261E085E00E94860261E02E
:100D200089E00E94860260E08BE00E94560260E04B
:100D30008CE00E9456020E94C8048BE297E09093D8
:100D4000800680937F068091280790E0909382062A
:100D5000809381068091F50790E0909384068093BC
:100D6000830680912407853009F072C280912D0797
:100D700090912E07885891098D35910588F48091BE
:100D80002807843041F480912F0790913007809795
:100D9000479708F49DC380912807843408F07FC3E7
:100DA000809128078A3108F454C080912B079091D4
:100DB0002C07843F914080F410927E0610927D06AD
:100DC0008FEF9FEFDC018093790690937A06A093D2
:100DD0007B06B0937C065BC080912D0790912E0717
:100DE00085974B97B0F5E1E3F7E082E090E040E0D3
:100DF00050E0BA018C010F5F1F4F2091280730E0AF
:100E0000021713076CF49F0122503109D9012D916B
:100E10003C91275031092730310508F4A2C3C8019D
:100E200001979595879590937E0680937D060C9704
:100E30002CF410927E0610927D060BC0409379062A
:100E400050937A0660937B0670937C0684E090E072
:100E5000BAC4809128078A3108F44DC080912B07CD
:100E600090912C078032934008F4A6CF80912D07F3
:100E700090912E07C697869708F48FC33CC0409385
:100E8000790650937A0660937B0670937C068BE01C
:100E900090E099C420813181255231092B313105EF
:100EA00008F08BC3440F551F661F771F41600296E1
:100EB00034968C010F5F1F4F2091280730E00217F6
:100EC000130764F49F0122503109D9012D913C91FF
:100ED0002C5031092B303105E8F2C8010197959566
:100EE000879590937E0680937D060C9744F610922A
:100EF0007E0610927D06809128078232E8F180916B
:100F00002D0790912E0706970797B0F5E1E3F7E0DC
:100F100082E090E0C12CD12C76019C012F5F3F4FE5
:100F20004091280750E0241735076CF4DF01129731
:100F30004D915C9111974E5151094731510508F47B
:100F400060C348C3C90101979595879590937E0624
:100F500080937D0640972CF410927E0610927D06B9
:100F60000BC0C0927906D0927A06E0927B06F0928E
:100F70007C068CE090E027C41BA21AA281E090E0DE
:100F80009A838983809128078D3008F46BC049E7E4
:100F900053E0BE016E5D7F4FCE0101960E946F054A
:100FA000892B09F05FC049E753E0BE016E5D7F4FBA
:100FB000CE0101960E946F05019709F053C049E7E1
:100FC00053E0BE016E5D7F4FCE0101960E946F051A
:100FD000892B09F047C0812C912C540100E010E0CE
:100FE0008091280790E029813A81281739075CF51C
:100FF00049E753E0BE016E5D7F4FCE0101960E942E
:101000006F057C0149E753E0BE016E5D7F4FCE0165
:1010100001960E946F05B1E0EB16F10449F4892BAB
:1010200009F5880C991CAA1CBB1C689480F808C0A0
:10103000EF28C1F40197B1F4880C991CAA1CBB1CC1
:101040000F5F1F4FCDCF10937E0600937D068092D9
:10105000790690927A06A0927B06B0927C0681E097
:1010600090E0B1C31BA21AA281E090E09A83898329
:101070008091810690918206181619060CF058C0CE
:10108000E0917F06F091800682E090E09A83898368
:101090008281938189974E9708F04AC083E090E05F
:1010A0009A838983848195810B970A9708F040C0C1
:1010B0004CEB51E0BE016E5D7F4FCE0101960E9468
:1010C0006F05892BA9F54CEB51E0BE016E5D7F4F9A
:1010D000CE0101960E946F05019751F5812C912C4C
:1010E000540100E010E029813A81809181069091BD
:1010F0008206281739070CF0C1C24CEB51E0BE0143
:101100006E5D7F4FCE0101960E946F056C0103302A
:10111000110509F07DC24CEB51E0BE016E5D7F4FC1
:10112000CE0101960E946F05C816D90609F470C257
:10113000E0917F06F091800682819381C697869721
:1011400008F4ABC224C44F5F5F4F4E155F050CF02F
:101150005FC3CA01880F991F8401080F191FD801A6
:101160000D911C91CA978E0F9F1FDC018D919C9150
:1011700097FF03C0919581959109D09E5001D19E12
:10118000B00C11248A199B0997FF03C09195819592
:101190009109873991050CF039C34217530709F0BB
:1011A00060C3808191818D3FBFEF9B0709F430C3FD
:1011B0008F3FAFEF9A070CF456C390936906809364
:1011C000680688E296E00E946105C0906806D090AB
:1011D00069060D2C000CEE08FF08F7FE2AC3E0910B
:1011E0008706F09188060190F081E02D6DE287E896
:1011F00096E0099522273327A9012C193D094E09AC
:101200005F0919A28E010F5D1F4FCA01B9012AE0C3
:1012100030E040E050E00E947812605DF801629397
:101220008F01211531054105510579F7C8010E944B
:101230004F058091680690916906FC013197E43171
:10124000F10508F41DC382E080932407109228075B
:101250000BE010E043E2E42EF12C66E470E080E065
:1012600090E00E944603E091FD07F091FE07908117
:101270008091F707892B8083E091F907F091FA07B5
:1012800090818091F707809589238083C801019719
:10129000F1F7E091F907F091FA0790818091F70753
:1012A000892B8083C7010197F1F7E091F907F0914D
:1012B000FA0790818091F707809589238083E091D8
:1012C000FD07F091FE0790818091F70780958923B3
:1012D0008083E091FB07F091FC0790818091F807F3
:1012E000892309F077C00E9421032091FF073091E4
:1012F00000084901A12CB12CB8EA8B0EB6E19B1E67
:10130000A11CB11CDC01CB01880D991DAA1DBB1DC0
:101310008093010890930208A0930308B0930408F7
:10132000E091FB07F091FC0790818091F8078923F9
:1013300081F40E9421038090010890900208A090FF
:101340000308B090040886169706A806B90640F769
:1013500041C00E9421032091FF0730910008DC0169
:10136000CB01820F931FA11DB11D809301089093A3
:101370000208A0930308B0930408E091FB07F091E2
:10138000FC0790818091F807892381F00E94210356
:101390008090010890900208A0900308B090040883
:1013A00086169706A806B90640F714C00E942103C6
:1013B0002091FF0730910008A90145505109209163
:1013C000010830910208FA01E21BF30BAF01460F4E
:1013D000571F02C040E050E0BA0180E090E029E3EE
:1013E00030E040E050E00E947812211531054105BF
:1013F000510509F432CFC9018D5A994F2EA33FA34D
:1014000048A759A70E9461052EA13FA148A559A54B
:1014100030936B0620936A0680918506909186062C
:10142000019799F5243131054105510558F50E9480
:10143000C80464E670E080E090E00E94460380E526
:1014400090E00E94E70464EF71E080E090E00E9489
:1014500046030E94C80464E670E080E090E00E94C9
:1014600046030E942E0564EF71E080E090E00E9448
:1014700046030E94C80464E670E080E090E00E94A9
:1014800046030AC00E940D0507C0243131054105FD
:10149000510510F40E94C8040E94A0014ECC809116
:1014A0002F0790913007825491098E9708F078CCDD
:1014B00080E090E040E050E0BA01FC01EF5CF84FC2
:1014C000208131812950310929303105C8F068CC9B
:1014D00080913107909132070997099708F05BCC0A
:1014E00010927E0610927D068FEF9FEFDC018093B5
:1014F000790690937A06A0937B06B0937C0621C070
:10150000FC01ED5CF84F20813181275131092231F6
:101510003105D0F4440F551F661F771F41600496B4
:101520008038910551F680E290E090937E0680939A
:101530007D064093790650937A0660937B067093FC
:101540007C0683E090E03FC1208131812650310943
:101550002730310508F024CC440F551F661F771F34
:10156000DECF20813181235131092F30310578F0D0
:10157000208131812A5031092930310508F069CCA8
:10158000440F551F661F771F0296349633CC440FC5
:10159000551F661F771F4160F7CF80912F079091ED
:1015A0003007C697869708F0A6CCE3E3F7E083E020
:1015B00090E040E050E0BA017CCC208131812C5099
:1015C00031092A30310508F096CC440F551F661FAB
:1015D000771F6DCC4D915C914C5051094B305105AA
:1015E00008F0CACCCC0CDD1CEE1CFF1C40815181E4
:1015F0003496435051094530510508F0A3CC02966A
:101600008CCCCC0CDD1CEE1CFF1C6894C0F8EECF1B
:101610004CEB51E0BE016E5D7F4FCE0101960E9402
:101620006F057C010330110569F44CEB51E0BE01FC
:101630006E5D7F4FCE0101960E946F05E816F90698
:1016400009F076CDC114D10459F4EA94EF2809F0D9
:101650006FCD880C991CAA1CBB1C689480F80BC029
:10166000CA94CD2809F064CDEF2809F061CD880C2B
:10167000991CAA1CBB1C0F5F1F4F35CD10937E0613
:1016800000937D068092790690927A06A0927B065E
:10169000B0927C0682E090E096C0848195814B9761
:1016A000459708F074C1DF0116967F0126ECE20E23
:1016B000F11C20E030E040E050E060E070E080E0CD
:1016C00090E00D911C9111970950110908301105F6
:1016D00008F05DC112960D911C91139701511109EB
:1016E0000D30110520F501E00E94AB122160149627
:1016F000AE15BF0531F72093790630937A064093F3
:101700007B0650937C0600E20E94C6122093770667
:101710003093780685E090E0909376068093750686
:1017200080E390E090937E0680937D0650C01296F1
:101730000D911C911397045011090530110508F003
:1017400026C101E00E94AB12D2CFA801425051093C
:10175000DA014D915C91495051094830510508F02A
:10176000C4C1BC016F5F7F4FD8014D915C91475060
:1017700051094730510508F0B5C3220F331F2160CE
:1017800002960C5F1F4F4091280750E044505109CA
:1017900084179507D4F201979595879590937E06C7
:1017A00080937D068A970CF4A0C1C901330FAA0B60
:1017B000BB0B8093790690937A06A0937B06B09337
:1017C0007C0689E090E090937606809375062091E0
:1017D0008106309182062430310509F42ACD8090AB
:1017E0007F06909080068091680690916906E0E0FF
:1017F000F1E060E070E0790144E0E41AF108B2E35E
:10180000DB2E2A5031094EE150E09FCC8DEF9FEF47
:101810006F5F7F4FFE9666317105A9F79093690659
:10182000809368066AE070E080E090E00E944603E2
:1018300000CDA701960119A28E010F5D1F4FCA01AD
:10184000B9012AE030E040E050E00E947812605D8B
:10185000D8016E938D01211531054105510579F7A8
:10186000E5CC8EEF9FEF6531710509F06CCC1092DD
:101870006906109268068EE396E00E946105D9CC55
:10188000EC5CFF4F0C949A1280918506909186062D
:10189000892B39F481E090E0909386068093850649
:1018A00006C010928606109285060E94C80464EF56
:1018B00071E080E090E00E944603C5CC8A3091053B
:1018C00051F48CE00E942D02892B11F461E001C0DB
:1018D00060E08CE059C00C9739F48BE00E942D0237
:1018E000892B09F049C04EC08CE00E942D02892B43
:1018F000F9F58BE00E942D02892B09F43FC038C016
:101900000E94C804A0CC0E94C8040E940D059BCC74
:101910000E94C80460E086E00E94560260E570E024
:1019200085E00E94C20260E570E08AE00E94C20287
:1019300060E089E00E9456028091850690918606BB
:10194000019709F080CC61E08CE00E94560260E0D3
:101950008BE00E94560277CC0E94C8040E942E059C
:1019600072CC0E94C80486E990E00E94E7046BCC28
:1019700060E08CE00E94560260E005C061E08CE00F
:101980000E94560261E08BE00E94560290CF809147
:101990002807893370F182819381895791098335B2
:1019A000910508F440C125C0D90112966D917C9132
:1019B0001397665171096131710508F060C1D70153
:1019C000C601880F991FAA1FBB1F6C017D01689477
:1019D000C0F84E5F5F4F2C5F3F4F4B33510509F40A
:1019E00031C1D9016D917C916A50710969307105DD
:1019F000D8F280912807823231F4828193810A974C
:101A0000099708F44CC182819381895791098335E4
:101A10009105D0F4809128078132B0F084819581BE
:101A2000CA97899788F49F012A5F3F4FC12CD12C18
:101A3000760143E050E0D9016D917C916A507109C3
:101A40006930710508F44AC1828193818C549109EF
:101A5000C59778F480912807843031F4848195818A
:101A60008097479708F49AC180912807843408F03A
:101A70007CC180912807863460F1828193810C9724
:101A80000B9708F4D9C125C0D90112966D917C91AC
:101A900013976E5171096731710508F0E8C1D701DC
:101AA000C601880F991FAA1FBB1F6C017D01689496
:101AB000C0F84E5F5F4F2C5F3F4F4534510509F42E
:101AC000E5C1D9016D917C916C5071096B30710544
:101AD000D8F280912807883540F08281938185581B
:101AE00091098B35910508F4EEC180912807803269
:101AF000E1F48281938106970697B8F484819581F9
:101B00000997099790F49F012A5F3F4FBF01625CDC
:101B10007F4FC12CD12C7601D9014D915C9146505B
:101B200051094630510508F4EAC18091810690912F
:101B300082069DA38CA306970CF485CB8F010A5FC8
:101B40001F4F93E0292E312C25ECC22E2DE9D22EE9
:101B50002CE1E22E21E8F22ED8016D917C91F80162
:101B60003497A080B18080E090E00E9449112B0161
:101B70003C01B50180E090E00E9449114B015C01FD
:101B80002DEC3CEC4CE45FE30E94FB119B01AC01AB
:101B9000C301B2010E949C1087FD17C02DEC3CECE4
:101BA0004CE45FE3C301B2010E94FB119B01AC0155
:101BB000C501B4010E949C10E82F880FFF0BEE278F
:101BC000FF0FEE1FFF27319602C0E0E0F0E0A70113
:101BD000960163E971E080E091E00E9468126F0174
:101BE000FF0FEE08FF08C626D726E826F926BFEF26
:101BF0002B1A3B0A0E5F1F4FECA1FDA12E163F06CC
:101C000009F0AACFC0927906D0927A06E0927B06BC
:101C1000F0927C0680E290E090937E0680937D06B1
:101C20008FEF9FEFD0CD84819581CA97899708F077
:101C3000E0CE9F012A5F3F4FC12CD12C760143E0BB
:101C400050E0CFCE9F012A583F4FD9012D913C91B2
:101C50002A5031092930310508F0CBCE2CE130E093
:101C600030937E0620937D06C0927906D0927A0644
:101C7000E0927B06F0927C068AE090E0A4CDD90148
:101C800012966D917C9113976650710967307105BA
:101C900008F0AFCECC0CDD1CEE1CFF1C9ACE2091C0
:101CA0002807CF01820F911D820F911DDC01129731
:101CB0008D919C910A97099708F0A5CE10927E0607
:101CC00010927D068FEF9FEFDC0180937906909351
:101CD0007A06A0937B06B0937C064BC1D90112967D
:101CE0006D917C911397665171096131710568F5A9
:101CF000D701C601880F991FAA1FBB1F6C017D0168
:101D00006894C0F84E5F5F4F2C5F3F4F43325105E0
:101D100009F091CE9F012A5B3F4FD9012D913C9153
:101D20002A5031092930310508F08ECE20E130E00B
:101D300030937E0620937D06C0927906D0927A0673
:101D4000E0927B06F0927C0614C1D90112966D9147
:101D50007C911397665071096730710508F074CE55
:101D6000CC0CDD1CEE1CFF1CCDCF848195818954E9
:101D70009109C39708F07DCE9F012A5F3F4FBF01B5
:101D80006A577F4FC12CD12C7601D9014D915C91BE
:101D90004950510949305105B8F06BCE8681978181
:101DA0000997099708F060CE10927E0610927D0682
:101DB0008FEF9FEFDC018093790690937A06A093D2
:101DC0007B06B0937C06D8C0D90112964D915C91E8
:101DD00013974651510941315105F0F4D701C6011D
:101DE000880F991FAA1FBB1F6C017D016894C0F862
:101DF0002C5F3F4F2617370741F620E230E0309343
:101E00007E0620937D06C0927906D0927A06E092F3
:101E10007B06F0927C06B0C0D90112964D915C9180
:101E20001397465051094730510508F022CECC0C8B
:101E3000DD1CEE1CFF1CDCCF84819581099709977E
:101E400008F047CE868197818C974F9708F041CE56
:101E50008085918589974D9708F03BCE9F01265F3D
:101E60003F4FC12CD12C760145E050E02ACE12968E
:101E70006D917C911397695071096930710508F073
:101E800028CECC0CDD1CEE1CFF1C13CE9F01265768
:101E90003F4FD9012D913C912C5031092B30310508
:101EA00008F017CE20E230E030937E0620937D06C6
:101EB000C0927906D0927A06E0927B06F0927C0678
:101EC00088E090E080CC84819581825491098E973E
:101ED00008F00BCE8F01045C1F4F8DE190E020E0F5
:101EE00030E051CCD8014D915C91485151094231BB
:101EF000510510F0CB014FCC220F331F41CCD9013B
:101F000012964D915C9113974951510943315105F6
:101F100028F112964D915C9113974950510949301F
:101F2000510508F002CECC0CDD1CEE1CFF1C2C5F12
:101F30003F4F2617370709F0EFCD2EE030E0309302
:101F40007E0620937D06C0927906D0927A06E092B2
:101F50007B06F0927C068FE090E035CCD701C6017D
:101F6000880F991FAA1FBB1F6C017D016894C0F8E0
:101F7000DECF86E090E027CC87E090E024CCE7E855
:101F8000F6E01382128288EE93E0A0E0B0E0848352
:101F90009583A683B7838AE196E09183808385EC5D
:101FA00090E09587848784EC90E09787868780EC23
:101FB00090E0918B808B81EC90E0938B828B82EC14
:101FC00090E0958B848B86EC90E0978B868B118EBE
:101FD000128E138E148EEEEDF0E0E491A7EFB7E0D1
:101FE000EC93EDEDF0E0E4911196EC9311978AEC0F
:101FF00090E0FC012491E22FF0E0EE0FFF1FE85487
:10200000FF4F2591349113963C932E931297E9EC50
:10201000F0E0E491F0E0EE0FFF1FE255FF4F259155
:10202000349115963C932E931497FC018491E82FDC
:10203000F0E0EE0FFF1FEC55FF4F8591949117963E
:102040009C938E93169781EC9CE219969C938E93A9
:102050001897E4E2F7E084E08183138208955058F2
:10206000BB27AA270E9447100C94C1110E94B311EC
:1020700038F00E94BA1120F039F49F3F19F426F489
:102080000C94B0110EF4E095E7FB0C94AA11E92F23
:102090000E94D21158F3BA17620773078407950795
:1020A00020F079F4A6F50C94F4110EF4E0950B2EC3
:1020B000BA2FA02D0B01B90190010C01CA01A0019A
:1020C0001124FF27591B99F0593F50F4503E68F1F5
:1020D0001A16F040A22F232F342F4427585FF3CF36
:1020E000469537952795A795F0405395C9F77EF407
:1020F0001F16BA0B620B730B840BBAF09150A1F050
:10210000FF0FBB1F661F771F881FC2F70EC0BA0FD5
:10211000621F731F841F48F4879577956795B7955D
:10212000F7959E3F08F0B0CF9395880F08F0992758
:10213000EE0F9795879508950E94861108F481E027
:1021400008950E94B5100C94C1110E94BA1158F064
:102150000E94B31140F029F45F3F29F00C94AA11BA
:1021600051110C94F5110C94B0110E94D21168F326
:102170009923B1F3552391F3951B550BBB27AA2740
:1021800062177307840738F09F5F5F4F220F331F7A
:10219000441FAA1FA9F335D00E2E3AF0E0E832D042
:1021A00091505040E695001CCAF72BD0FE2F29D045
:1021B000660F771F881FBB1F261737074807AB0717
:1021C000B0E809F0BB0B802DBF01FF2793585F4F8C
:1021D0003AF09E3F510578F00C94AA110C94F51139
:1021E0005F3FE4F3983ED4F3869577956795B7956E
:1021F000F7959F5FC9F7880F911D9695879597F979
:102200000895E1E0660F771F881FBB1F62177307F1
:102210008407BA0720F0621B730B840BBA0BEE1F06
:1022200088F7E09508950E941A116894B1110C94F2
:10223000F51108950E94DA1188F09F5798F0B92F90
:102240009927B751B0F0E1F0660F771F881F991FEB
:102250001AF0BA95C9F714C0B13091F00E94F41188
:10226000B1E008950C94F411672F782F8827B85F98
:1022700039F0B93FCCF3869577956795B395D9F743
:102280003EF490958095709561957F4F8F4F9F4F4D
:102290000895E89409C097FB3EF490958095709559
:1022A00061957F4F8F4F9F4F9923A9F0F92F96E9A2
:1022B000BB279395F695879577956795B795F11117
:1022C000F8CFFAF4BB0F11F460FF1BC06F5F7F4FB4
:1022D0008F4F9F4F16C0882311F096E911C07723C6
:1022E00021F09EE8872F762F05C0662371F096E8CF
:1022F000862F70E060E02AF09A95660F771F881F9E
:10230000DAF7880F9695879597F90895990F000841
:10231000550FAA0BE0E8FEEF16161706E807F907B7
:10232000C0F012161306E407F50798F0621B730B52
:10233000840B950B39F40A2661F0232B242B252BD3
:1023400021F408950A2609F4A140A6958FEF811D76
:10235000811D089597F99F6780E870E060E0089517
:102360009FEF80EC089500240A94161617061806AD
:102370000906089500240A94121613061406050689
:102380000895092E0394000C11F4882352F0BB0F1A
:1023900040F4BF2B11F460FF04C06F5F7F4F8F4F7D
:1023A0009F4F089557FD9058440F551F59F05F3FB8
:1023B00071F04795880F97FB991F61F09F3F79F067
:1023C00087950895121613061406551FF2CF4695E9
:1023D000F1DF08C0161617061806991FF1CF86956B
:1023E0007105610508940895E894BB27662777274F
:1023F000CB0197F908950E940E120C94C1110E940E
:10240000B31138F00E94BA1120F0952311F00C940A
:10241000AA110C94B01111240C94F5110E94D21140
:1024200070F3959FC1F3950F50E0551F629FF00127
:10243000729FBB27F00DB11D639FAA27F00DB11D40
:10244000AA1F649F6627B00DA11D661F829F2227C9
:10245000B00DA11D621F739FB00DA11D621F839F50
:10246000A00D611D221F749F3327A00D611D231F26
:10247000849F600D211D822F762F6A2F11249F5774
:1024800050409AF0F1F088234AF0EE0FFF1FBB1F77
:10249000661F771F881F91505040A9F79E3F510536
:1024A00080F00C94AA110C94F5115F3FE4F3983E70
:1024B000D4F3869577956795B795F795E7959F5FE0
:1024C000C1F7FE2B880F911D9695879597F9089572
:1024D000DB018F939F930E94A012BF91AF91A29FA7
:1024E000800D911DA39F900DB29F900D1124089512
:1024F000A1E21A2EAA1BBB1BFD010DC0AA1FBB1F08
:10250000EE1FFF1FA217B307E407F50720F0A21B79
:10251000B30BE40BF50B661F771F881F991F1A94E6
:1025200069F760957095809590959B01AC01BD0110
:10253000CF010895EE0FFF1F0590F491E02D09944F
:102540000E94E212A59F900DB49F900DA49F800D54
:10255000911D112408950F93083090F0982F872F24
:10256000762F652F542F432F322F22270850F4CF78
:10257000220F331F441F551F661F771F881F991F87
:102580000A95B2F70F91089597FB10F8169400087A
:102590000F93083098F00850232F342F452F562FD3
:1025A000672F782F892F902DF4CF059497958795D5
:1025B0007795679557954795379527950A95AAF783
:1025C0000F910895A29FB001B39FC001A39F700D0A
:1025D000811D1124911DB29F700D811D1124911D2B
:1025E000089581E090E0F8940C94F612F894FFCFEF
:1025F00001004006580240065802400658024006B4
:102600008A02F4018A024006260226028A02F401A6
:102610008A02F4018A0240065802F4018A02F40197
:102620008A0240065802260258024006580202005A
:102630007206580240065802720626022602580206
:1026400072062602720658022602260226028A0214
:102650002602580240065802260226027206580236
:102660002602580226025802400658020300A40619
:102670002602A406F401720658027206F401A406AA
:102680002602720626028A02F4018A02F4018A02F4
:10269000F401720626025802260258022602580247
:1026A000260258022602720626020400400658023C
:1026B0007206260272065802F401580226025802D7
:1026C00040068A02F40158022602580226025802E5
:1026D0004006580258022602720658024006580266
:1026E0002602580240065802050040068A020E06DD
:1026F0005802720658022602260258025802F401B5
:1027000058022602580226028A02F40158024006A4
:102710008A02F4018A024006260272065802400626
:10272000580240068A02060040068A024006260237
:1027300072065802400658024006580226028A02D3
:102740002602260226025802260258024006580295
:102750002602580258022602260258024006580253
:102760007206580207004006580240068A024006D8
:102770005802400658024006580240068A02F401F8
:102780008A02F40158022602580226025802260242
:102790005802260258022602580226025802400613
:1027A000580208004006580240068A0240062602E7
:1027B00072065802260258024006580226025802A3
:1027C00040065802260258022602580226025802E3
:1027D00026025802400658022602580240068A0283
:1027E0000900720658027206260272065802400656
:1027F00058022602260258022602720626025802B3
:1028000058022602260258025802260226025802C0
:1028100026027206260272065802260226020A00C4
:1028200040068A0240062602720658022602580214
:102830004006580272065802F40158027206580205
:102840002602580226025802F40158027206580263
:102850002602580226025802400658020B00400683
:10286000580240068A0240065802400658022602D4
:102870005802260258024006580240065802260214
:102880005802260258022602580226025802400622
:10289000580240068A02F4018A020C0072065802AD
:1028A0007206260272065802400626025802580294
:1028B00040065802720626022602580226025802D4
:1028C00026025802260226025802580240065802E2
:1028D00026025802260258020D0040068A020E0601
:1028E0008A02400658022602580226025802400672
:1028F00058024006580226025802260258022602B2
:102900005802260258024006580240065802260283
:102910005802260258020E0040068A02400658025B
:102920004006580226025802260258022602580281
:1029300040065802400658022602580226028A0221
:10294000F40158024006580240068A024006580226
:10295000F4018A020F00400658024006580272062F
:102960005802260258024006580240065802400605
:102970008A024006580226022602720658022602E1
:102980005802400658022602580226025802260221
:1029900058021000720658024006580240068A0289
:1029A000F401580226025802260258024006580234
:1029B000260258022602580226025802260258020F
:1029C0004006580240068A024006260226028A0273
:1029D0001100720658024006580240068A02F401AD
:1029E0005802260258024006580272065802400653
:1029F00058022602580226025802260258024006B1
:102A000058024006580226025802260258021200B6
:102A100040068A0240065802400658022602580222
:102A200040065802260258024006580240068A0212
:102A3000F4018A0240065802260258024006580253
:102A40002602580240065802260258021300400689
:102A5000580240068A0240065802260258024006E2
:102A6000580226025802260258022602580226025E
:102A70002602720658022602580240065802260212
:102A80005802400658027206580214000E068A02C6
:102A900040065802400658022602580240065802D4
:102AA0002602580226025802400658022602580200
:102AB00040068A02F401580240068A02F4018A02A2
:102AC00040065802400658021500400658024006CB
:102AD0008A020E068A02F4018A0240065802F401B4
:102AE0008A02400658022602580226025802400670
:102AF0005802260258024006580226025802400692
:102B0000580226025802000000003701A000CF0042
:102B10007E010001DE00F200546F7563686520617C
:102B200070707579C3A965206EC2B03A2000546FE9
:102B30007563686520696E74726F757661626C6525
:102B400020210044697374616E6365206F626A6559
:082B500074203A000D0A000098
:00000001FF
